:020000040800F2
:10000000002800207D130008790800087F080008F8
:10001000850800088B08000891080008000000000F
:100020000000000000000000000000009708000829
:10003000A308000800000000AF080008BB08000883
:10004000C5130008C5130008C5130008C513000830
:10005000C5130008C5130008C5130008C513000820
:10006000C5130008C5130008C5130008C513000810
:10007000C5130008C5130008C5130008C513000800
:10008000C5130008C5130008C5130008C5130008F0
:10009000C5130008C5130008C5130008C5130008E0
:1000A000C5130008C5130008C5130008C5130008D0
:1000B000C9080008C513000800000000C5130008A7
:1000C000C51300080000000000000000C513000870
:1000D00000000000C5130008DD0800080000000053
:1000E000C5130008C5130008C51300080000000070
:1000F0000000000000000000000000000000000000
:0C01000000000000000000005FF808F1A3
:10010C0010B5054C237833B9044B13B10448AFF345
:10011C0000800123237010BD70000020000000003F
:10012C00684A000808B5034B1BB103490348AFF3F9
:10013C00008008BD0000000074000020684A000820
:10014C0080B582B000AF78607B681B68084A934228
:10015C000AD1322301220749074802F048FD012247
:10016C000449054802F0D5FD00BF0837BD4680BDE7
:10017C00004400401C0100208C00002080B500AF22
:10018C0001F01CF900F048F800F0F8F800F080F8E5
:10019C0000F0CAF801221749174802F0BAFD1748B7
:1001AC0002F044F900F04EF94FF47A7264211448CD
:1001BC0000F060F94FF4FA726421124800F05AF919
:1001CC004FF47A726421104800F054F940F2DC527A
:1001DC0064210E4800F04EF94FF4FA6264210C4889
:1001EC0000F048F9002264210A4800F043F900F0BD
:1001FC000DFAFCE71C0100208C000020D40000202C
:10020C00D10A0008D10F0008B9100008E90E000847
:10021C00A11100088D12000880B590B000AF07F155
:10022C00180328220021184603F0F6F93B1D002282
:10023C001A605A609A60DA601A610223BB6101236A
:10024C00BB621023FB6200237B6307F11803184683
:10025C0001F082FC0346002B01D000F0EDF80F23D7
:10026C007B600023BB600023FB6000233B61002309
:10027C007B613B1D0021184601F0F0FE0346002B6C
:10028C0001D000F0D9F800BF4037BD4680BD00005A
:10029C0080B586B000AF07F1080300221A605A60DF
:1002AC009A60DA603B4600221A605A601D4B4FF090
:1002BC0080421A601B4B41F63F725A60194B002268
:1002CC009A60184B0922DA60164B00221A61154B02
:1002DC0000229A61134802F059F80346002B01D012
:1002EC0000F0AAF84FF48053BB6007F108031946DD
:1002FC000C4802F0EFF90346002B01D000F09CF8FB
:10030C0000233B6000237B603B461946054802F006
:10031C00B7FB0346002B01D000F08EF800BF183756
:10032C00BD4680BDD400002080B500AF114B124AF1
:10033C001A60104B4FF416525A600E4B00229A6002
:10034C000C4B0022DA600B4B00221A61094B0C2279
:10035C005A61084B00229A61064B0022DA6105486B
:10036C0002F0F8FB0346002B01D000F065F800BF4B
:10037C0080BD00BF8C0000200044004080B586B0DA
:10038C0000AF07F1080300221A605A609A60DA6025
:10039C00214B9B69204A43F0040393611E4B9B69DC
:1003AC0003F004037B607B681B4B9B691A4A43F088
:1003BC0008039361184B9B6903F008033B603B688F
:1003CC0001224FF47871154801F094FB00227F2133
:1003DC00134801F08FFB4FF47873BB600123FB6073
:1003EC0000233B6102237B6107F1080319460B488C
:1003FC0001F004FA7F23BB600123FB6000233B6107
:10040C0002237B6107F108031946054801F0F6F950
:10041C0000BF1837BD4680BD0010024000080140E7
:10042C00000C014080B582B000AF786000F07CF821
:10043C0000BF0837BD4680BD80B400AF72B600BFA8
:10044C00FEE7000080B582B000AF00237B6005E0C2
:10045C00786800F035F97B6801337B607B68272B6B
:10046C00F6DD034B00221A6000BF0837BD4680BD85
:10047C004004002080B485B000AFF860B9607A60A9
:10048C00264B1B68272B44DC244B1A682449134643
:10049C009B0013449B000B44FA681A601F4B1A68AC
:1004AC00BB682049A1FB0313D9081D4813469B00C8
:1004BC0013449B00034404331960184B1A687B687F
:1004CC001849A1FB0313D908154813469B00134484
:1004DC009B00034408331960104B1A6810491346EB
:1004EC009B0013449B000B440C3300221A700B4BE3
:1004FC0019680A4B1A680846094913469B001344AD
:10050C009B000B4410331860044B1B680133034AE7
:10051C00136000BF1437BD4680BC704740040020F8
:10052C0020010020CDCCCCCC80B483B000AF344BB8
:10053C001B680133324A136000237B6054E031495D
:10054C007A6813469B0013449B000B441B68002BDA
:10055C0046D02C497A6813469B0013449B000B44ED
:10056C0004331B68002B13D026497A6813469B0072
:10057C0013449B000B4404331B68591E21487A68B2
:10058C0013469B0013449B0003440433196028E07A
:10059C001C497A6813469B0013449B000B44083398
:1005AC00196818487A6813469B0013449B0003444F
:1005BC000433196013497A6813469B0013449B005B
:1005CC000B440C331B780133D8B20E497A681346AE
:1005DC009B0013449B000B440C3302461A7000E042
:1005EC0000BF7B6801337B60074B1B687A689A42BB
:1005FC00A5DB00BF00BF0C37BD4680BC704700BFF9
:10060C00D0000020200100204004002080B582B0E2
:10061C0000AF00237B6045E027497A6813469B00B6
:10062C0013449B000B441B68002B37D022497A687B
:10063C0013469B0013449B000B440C331B78002B7C
:10064C002DD01D497A6813469B0013449B000B4424
:10065C001B68984718497A6813469B0013449B0003
:10066C000B440C331B78013BD8B213497A68134600
:10067C009B0013449B000B440C3302461A700E492A
:10068C007A6813469B0013449B000B4408331B6889
:10069C00002B04D1786800F013F800E000BF7B68F1
:1006AC0001337B60054B1B687A689A42B4DB00BF50
:1006BC0000BF0837BD4680BD20010020400400204B
:1006CC0080B483B000AF78601B497A6813469B00F6
:1006DC0013449B000B441B68002B27D016497A68E7
:1006EC0013469B0013449B000B4400221A601249D2
:1006FC007A6813469B0013449B000B44043300227E
:10070C001A600D497A6813469B0013449B000B44F6
:10071C00083300221A6008497A6813469B00134478
:10072C009B000B440C3300221A7000BF00BF0C3727
:10073C00BD4680BC704700BF2001002080B483B050
:10074C0000AF0E4B9B690D4A43F0010393610B4BB9
:10075C009B6903F001037B607B68084BDB69074AEC
:10076C0043F08053D361054BDB6903F080533B604E
:10077C003B6800BF0C37BD4680BC70470010024080
:10078C0080B584B000AF78607B681B68B3F1804F94
:10079C0013D10C4BDB690B4A43F00103D361094BBA
:1007AC00DB6903F00103FB60FB68002200211C20C5
:1007BC0000F03DFF1C2000F056FF00BF1037BD4677
:1007CC0080BD00BF0010024080B588B000AF7860DB
:1007DC0007F1100300221A605A609A60DA607B6895
:1007EC001B681F4A934237D11E4BDB691D4A43F4E9
:1007FC000033D3611B4BDB6903F40033FB60FB68F4
:10080C00184B9B69174A43F004039361154B9B6982
:10081C0003F00403BB60BB6804233B6102237B61D0
:10082C000323FB6107F1100319460F4800F0E6FFA4
:10083C0008233B6100237B610023BB6107F110039C
:10084C001946094800F0DAFF00220021262000F0AA
:10085C00EEFE262000F007FF00BF2037BD4680BD0E
:10086C0000440040001002400008014080B400AF7A
:10087C00FEE780B400AFFEE780B400AFFEE780B4C3
:10088C0000AFFEE780B400AFFEE780B400AF00BF5E
:10089C00BD4680BC704780B400AF00BFBD4680BC75
:1008AC00704780B400AF00BFBD4680BC704780B5B8
:1008BC0000AF00F0C9FD00BF80BD000080B500AFE7
:1008CC00024801F0FFFD00BF80BD00BFD400002036
:1008DC0080B500AF024802F04DFA00BF80BD00BFEA
:1008EC008C00002080B400AF01231846BD4680BCAC
:1008FC00704780B582B000AF7860396002F062FE5C
:10090C00034616221A604FF0FF3318460837BD46CF
:10091C0080BD80B582B000AF78604FF0FF31786851
:10092C00FFF7E7FFFEE780B586B000AFF860B9606F
:10093C007A6000237B610AE0AFF300800146BB685C
:10094C005A1CBA60CAB21A707B6901337B617A692E
:10095C007B689A42F0DB7B6818461837BD4680BD31
:10096C0080B586B000AFF860B9607A6000237B6117
:10097C0009E0BB685A1CBA601B781846AFF30080BC
:10098C007B6901337B617A697B689A42F1DB7B6816
:10099C0018461837BD4680BD80B483B000AF786070
:1009AC004FF0FF3318460C37BD4680BC704780B4FF
:1009BC0083B000AF786039603B684FF400525A60E6
:1009CC00002318460C37BD4680BC704780B483B0FA
:1009DC0000AF7860012318460C37BD4680BC7047C9
:1009EC0080B485B000AFF860B9607A600023184617
:1009FC001437BD4680BC704780B586B000AF7860B8
:100A0C00144A154BD31A7B617B693B61134B1B68F2
:100A1C00002B02D1114B124A1A60104B1A687B68DA
:100A2C0013443A699A4207D202F0CCFD03460C22D9
:100A3C001A604FF0FF3309E0084B1B68FB60074B53
:100A4C001A687B681344054A1360FB68184618370C
:100A5C00BD4680BD00280020000400004404002096
:100A6C006004002080B400AF00BFBD4680BC70475E
:100A7C0080B485B000AF78600123FB607968104BBF
:100A8C0083FB01239A10CB17D21A13469B001344F5
:100A9C005B00CA1A7B6893420BD0FB680133FB6086
:100AAC007B68074A82FB03129210DB17D31A7B6018
:100ABC00E4E7FB6818461437BD4680BC704700BF9E
:100ACC00676666662DE9F0478EB000AF6B469A46B6
:100ADC00C04A07F1240392E8030083E80300BE4BED
:100AEC001B681846FFF7C4FF0646731E7B6332462D
:100AFC000023904699464FF000024FF000034FEA56
:100B0C00C90343EA58734FEAC8023246002314461D
:100B1C001D464FF000024FF00003EB0043EA547304
:100B2C00E20033460733DB08DB00ADEB030D6B460D
:100B3C0000333B63A84B1B681A46A849386B02F07C
:100B4C00B1FDA74B3C1D1D460FCD0FC495E80F0002
:100B5C0007C4238002341B0C237007F124014FF4CB
:100B6C007A7308229F4802F042F8B2B24FF47A73BB
:100B7C00396B9C4802F03BF8391D4FF47A731F22F5
:100B8C00984802F034F802F04FFD0246964B83FB76
:100B9C0002139910D317C91A0B469B000B445B0028
:100BAC00D31AFB62FB6A092B00F28E8101A252F868
:100BBC0023F000BFE90B0008310C0008790C000889
:100BCC00C10C0008090D0008510D0008990D000812
:100BDC00FD0D0008450E00088D0E000800220121B5
:100BEC00824800F087FF00220221804800F082FF3B
:100BFC00002204217D4800F07DFF002208217B4863
:100C0C0000F078FF00221021784800F073FF0022DA
:100C1C002021764800F06EFF01224021734800F03D
:100C2C0069FF52E101220121704800F063FF0022AC
:100C3C0002216E4800F05EFF002204216B4800F098
:100C4C0059FF01220821694800F054FF01221021AC
:100C5C00664800F04FFF01222021644800F04AFF53
:100C6C0001224021614800F045FF2EE100220121C4
:100C7C005E4800F03FFF002202215C4800F03AFF82
:100C8C0001220421594800F035FF00220821574861
:100C9C0000F030FF00221021544800F02BFF0122FD
:100CAC002021524800F026FF002240214F4800F03E
:100CBC0021FF0AE1002201214C4800F01BFF002219
:100CCC0002214A4800F016FF00220421474800F098
:100CDC0011FF00220821454800F00CFF01221021D1
:100CEC00424800F007FF01222021404800F002FF9B
:100CFC00002240213D4800F0FDFEE6E001220121EA
:100D0C003A4800F0F7FE00220221384800F0F2FECB
:100D1C0000220421354800F0EDFE01220821334861
:100D2C0000F0E8FE01221021304800F0E3FE002222
:100D3C0020212E4800F0DEFE002240212B4800F03E
:100D4C00D9FEC2E000220121284800F0D3FE012286
:100D5C000221264800F0CEFE00220421234800F098
:100D6C00C9FE00220821214800F0C4FE01221021F6
:100D7C001E4800F0BFFE002220211C4800F0BAFEE5
:100D8C0000224021194800F0B5FE9EE0002201210E
:100D9C00164800F0AFFE01220221144800F0AAFE12
:100DAC0000220421114800F0A5FE002208210F4862
:100DBC0000F0A0FE002210210C4800F09BFE002247
:100DCC0020210A4800F096FE00224021074800F03E
:100DDC0091FE7AE0844A0008D0000020804A000886
:100DEC008C4A00088C00002067666666000C014087
:100DFC0000220121384800F07DFE002202213648F5
:100E0C0000F078FE00220421334800F073FE01222A
:100E1C000821314800F06EFE012210212E4800F00E
:100E2C0069FE012220212C4800F064FE01224021A1
:100E3C00294800F05FFE48E000220121264800F01E
:100E4C0059FE00220221244800F054FE0022042105
:100E5C00214800F04FFE002208211F4800F04AFEF6
:100E6C00002210211C4800F045FE002220211A48C7
:100E7C0000F040FE00224021174800F03BFE24E029
:100E8C0000220121144800F035FE002202211248F4
:100E9C0000F030FE002204210F4800F02BFE00224F
:100EAC0008210D4800F026FE012210210A4800F00E
:100EBC0021FE00222021084800F01CFE00224021C7
:100ECC00054800F017FE00E000BFD54600BF3837DC
:100EDC00BD46BDE8F08700BF000C01402DE9F0478E
:100EEC008EB000AF6B469A46304A07F1280392E861
:100EFC00030083E803002E4B1B681846FFF7B8FD70
:100F0C000646731E7B6332460023904699464FF08B
:100F1C0000024FF000034FEAC90343EA58734FEA4B
:100F2C00C8023246002314461D464FF000024FF013
:100F3C000003EB0043EA5473E20033460733DB084B
:100F4C00DB00ADEB030D6B4600333B63184B1B68AA
:100F5C001A461849386B02F0A5FB174B3C1D1D4671
:100F6C000FCD0FC40FCD0FC42B68237007F12801D0
:100F7C004FF47A730822114801F039FEB2B24FF4E3
:100F8C007A73396B0D4801F032FE391D4FF47A73C8
:100F9C0021220A4801F02BFE8021094800F0C2FDF5
:100FAC00D54600BF3837BD46BDE8F087844A0008F7
:100FBC00D0000020804A0008AC4A00088C000020B9
:100FCC00000801402DE9F0478CB000AF6B469A4603
:100FDC00304A07F1200392E8030083E803002E4B0C
:100FEC001B681846FFF744FD0646731EFB6232462B
:100FFC000023904699464FF000024FF000034FEA51
:10100C00C90343EA58734FEAC80232460023144618
:10101C001D464FF000024FF00003EB0043EA5473FF
:10102C00E20033460733DB08DB00ADEB030D6B4608
:10103C000033BB62184B1B681A461849B86A02F099
:10104C0031FB174B3C461D460FCD0FC495E80F00E6
:10105C0007C4238007F120014FF47A73082211484A
:10106C0001F0C5FDB2B24FF47A73B96A0D4801F0C4
:10107C00BEFD39464FF47A731E220A4801F0B7FDC3
:10108C002021094800F04EFDD54600BF3037BD4643
:10109C00BDE8F087844A0008D0000020804A000890
:1010AC00D04A00088C000020000801402DE9F047D0
:1010BC008CB000AF6B469A46304A07F1200392E899
:1010CC00030083E803002E4B1B681846FFF7D0FC87
:1010DC000646731EFB6232460023904699464FF03B
:1010EC0000024FF000034FEAC90343EA58734FEA7A
:1010FC00C8023246002314461D464FF000024FF042
:10110C000003EB0043EA5473E20033460733DB0879
:10111C00DB00ADEB030D6B460033BB62184B1B6859
:10112C001A461849B86A02F0BDFA174B3C461D46E0
:10113C000FCD0FC495E80F0084E80F0007F12001D4
:10114C004FF47A730822114801F051FDB2B24FF4FA
:10115C007A73B96A0D4801F04AFD39464FF47A7337
:10116C0020220A4801F043FD4021094800F0DAFC36
:10117C00D54600BF3037BD46BDE8F087844A00082D
:10118C00D0000020804A0008F04A00088C000020A3
:10119C00000801402DE9F0478EB000AF6B469A462F
:1011AC00314A07F1280392E8030083E803002F4B30
:1011BC001B681846FFF75CFC0646731E7B633246C1
:1011CC000023904699464FF000024FF000034FEA7F
:1011DC00C90343EA58734FEAC80232460023144647
:1011EC001D464FF000024FF00003EB0043EA54732E
:1011FC00E20033460733DB08DB00ADEB030D6B4637
:10120C0000333B63194B1B681A461949386B02F0C3
:10121C0049FA184B3C1D1D460FCD0FC40FCD0FC402
:10122C002B68237007F128014FF47A7308221248B7
:10123C0001F0DDFCB2B24FF47A73396B0E4801F059
:10124C00D6FC391D4FF47A7321220B4801F0CFFCE8
:10125C004FF48071094800F065FCD54600BF383763
:10126C00BD46BDE8F08700BF844A0008D0000020CE
:10127C00804A0008104B00088C0000200008014038
:10128C002DE9F0478CB000AF6B469A46324A07F115
:10129C00200392E8030083E80300304B1B681846D8
:1012AC00FFF7E6FB0646731EFB62324600239046B0
:1012BC0099464FF000024FF000034FEAC90343EA8E
:1012CC0058734FEAC8023246002314461D464FF0AD
:1012DC0000024FF00003EB0043EA5473E200334684
:1012EC000733DB08DB00ADEB030D6B460033BB6251
:1012FC001A4B1B681A461A49B86A02F0D3F9194BF3
:10130C003C461D460FCD0FC495E80F0007C4238043
:10131C0002341B0C237007F120014FF47A7308225E
:10132C00114801F064FCB2B24FF47A73B96A0E48FA
:10133C0001F05DFC39464FF47A731F220A4801F024
:10134C0056FC4FF40071094800F0ECFBD54600BF89
:10135C003037BD46BDE8F087844A0008D000002035
:10136C00804A0008344B00088C0000200008014023
:10137C000C480D490D4A002302E0D458C4500433E4
:10138C00C4188C42F9D30A4A0A4C002301E01360BA
:10139C000432A242FBD3FFF765FB02F019F9FEF70A
:1013AC00EDFE70470000002070000020CC4C0008BF
:1013BC00700000205C040020FEE7000080B500AF48
:1013CC00084B1B68074A43F010031360032000F01E
:1013DC0023F90F2000F008F8FFF7B0F900231846A6
:1013EC0080BD00BF0020024080B582B000AF7860A5
:1013FC00124B1A68124B1B7819464FF47A73B3FBD5
:10140C00F1F3B2FBF3F3184600F03BF90346002B63
:10141C0001D001230EE07B680F2B0AD800227968DB
:10142C004FF0FF3000F003F9064A7B68136000238D
:10143C0000E0012318460837BD4680BD000000209F
:10144C00080000200400002080B400AF054B1B787E
:10145C001A46054B1B681344034A136000BFBD4674
:10146C0080BC7047080000204804002080B400AF06
:10147C00024B1B681846BD4680BC704748040020D0
:10148C0080B485B000AF78607B6803F00703FB6025
:10149C000C4BDB68BB60BA684FF6FF031340BB60B4
:1014AC00FB681A02BB68134343F0BF6343F4003379
:1014BC00BB60044ABB68D36000BF1437BD4680BC18
:1014CC00704700BF00ED00E080B400AF044BDB6858
:1014DC001B0A03F007031846BD4680BC704700BFCB
:1014EC0000ED00E080B483B000AF0346FB7197F9C8
:1014FC000730002B0BDBFB7903F01F02064997F931
:10150C0007305B09012000FA02F241F8232000BFEA
:10151C000C37BD4680BC704700E100E080B483B05E
:10152C0000AF03463960FB7197F90730002B0ADBDB
:10153C003B68DAB20C4997F907301201D2B20B446E
:10154C0083F800230AE03B68DAB20849FB7903F020
:10155C000F03043B1201D2B20B441A7600BF0C37B6
:10156C00BD4680BC704700BF00E100E000ED00E02C
:10157C0080B489B000AFF860B9607A60FB6803F0A2
:10158C000703FB61FB69C3F10703042B28BF04238A
:10159C00BB61FB690433062B02D9FB69033B00E0FA
:1015AC0000237B614FF0FF32BB6902FA03F3DA438D
:1015BC00BB681A407B699A404FF0FF317B6901FA96
:1015CC0003F3D9437B680B40134318462437BD46BD
:1015DC0080BC704780B582B000AF78607B68013BFF
:1015EC00B3F1807F01D301230FE00A4A7B68013BF2
:1015FC0053600F214FF0FF30FFF790FF054B002297
:10160C009A60044B07221A60002318460837BD461F
:10161C0080BD00BF10E000E080B582B000AF786004
:10162C007868FFF72DFF00BF0837BD4680BD80B539
:10163C0086B000AF0346B9607A60FB7300237B6110
:10164C00FFF742FF78617A68B9687869FFF790FF15
:10165C00024697F90F3011461846FFF75FFF00BF9F
:10166C001837BD4680BD80B582B000AF0346FB7114
:10167C0097F907301846FFF735FF00BF0837BD460E
:10168C0080BD80B582B000AF78607868FFF7A2FFAC
:10169C00034618460837BD4680BD80B485B000AF00
:1016AC0078600023FB737B6893F82130022B08D001
:1016BC007B6804229A637B68002283F82020012334
:1016CC0020E07B681B681A687B681B6822F00E029E
:1016DC001A607B681B681A687B681B6822F0010221
:1016EC001A607B681A6C7B68DB6B012101FA02F2D1
:1016FC005A607B68012283F821207B68002283F8E2
:10170C002020FB7B18461437BD4680BC7047000078
:10171C0080B584B000AF78600023FB737B6893F8CE
:10172C002130022B05D07B6804229A630123FB73C2
:10173C0051E07B681B681A687B681B6822F00E02FC
:10174C001A607B681B681A687B681B6822F00102B0
:10175C001A607B681B68224A934229D07B681B68FD
:10176C00204A934222D07B681B681F4A93421AD0AE
:10177C007B681B681D4A934212D07B681B681C4A0D
:10178C0093420AD07B681B681A4A934202D14FF4E9
:10179C0080130EE04FF080730BE04FF4803308E0C1
:1017AC004FF4805305E04FF4807302E0102300E007
:1017BC000123114A53607B68012283F821207B6846
:1017CC00002283F820207B685B6B002B03D07B68A6
:1017DC005B6B78689847FB7B18461037BD4680BD1D
:1017EC00080002401C00024030000240440002404D
:1017FC00580002406C0002400000024080B48BB0E4
:10180C0000AF7860396000237B6200233B6261E1AA
:10181C0001227B6A02FA03F3FB613B681B68FA69DD
:10182C001340BB61BA69FB699A4240F050813B6836
:10183C005B68974A93425ED0954A934275D8954A15
:10184C00934258D0934A93426FD8934A934252D0C2
:10185C00914A934269D8914A93424CD08F4A934211
:10186C0063D88F4A934246D08D4A93425DD8122B4F
:10187C002AD8122B59D801A252F823F003190008C8
:10188C00DD180008EF180008311900083719000896
:10189C0037190008371900083719000837190008DC
:1018AC0037190008371900083719000837190008CC
:1018BC0037190008371900083719000837190008BC
:1018CC00E5180008F9180008764A934213D02CE06A
:1018DC003B68DB683B6229E03B68DB6804333B62B6
:1018EC0024E03B68DB6808333B621FE03B68DB6845
:1018FC000C333B621AE03B689B68002B02D104233B
:10190C003B6213E03B689B68012B05D108233B62CB
:10191C007B68FA691A6109E008233B627B68FA6903
:10192C005A6103E000233B6200E000BFBB69FF2B60
:10193C0001D87B6801E07B6804337B61BB69FF2BBA
:10194C0002D87B6A9B0002E07B6A083B9B003B61F0
:10195C007B691A680F213B6901FA03F3DB431A40D8
:10196C00396A3B6901FA03F31A437B691A603B68D5
:10197C005B6803F08053002B00F0A9804A4B9B69F5
:10198C00494A43F001039361474B9B6903F0010300
:10199C00BB60BB68454A7B6A9B08023352F8233014
:1019AC00FB607B6A03F003039B000F2202FA03F334
:1019BC00DB43FA681340FB607B683D4A93420DD0D1
:1019CC007B683C4A934207D07B683B4A934201D1E7
:1019DC00022304E0032302E0012300E000237A6ADF
:1019EC0002F0030292009340FA681343FB602F4904
:1019FC007B6A9B080233FA6841F823203B685B68DA
:101A0C0003F48033002B06D02C4B1A682B49BB698E
:101A1C0013430B6006E0294B1A68BB69DB4327496B
:101A2C0013400B603B685B6803F40033002B06D05B
:101A3C00224B5A682149BB6913434B6006E01F4B8C
:101A4C005A68BB69DB431D4913404B603B685B68BC
:101A5C0003F48013002B06D0184B9A681749BB6906
:101A6C0013438B6006E0154B9A68BB69DB43134943
:101A7C0013408B603B685B6803F40013002B1FD092
:101A8C000E4BDA680D49BB691343CB601FE000BFF6
:101A9C000000321000003110000022100000211054
:101AAC000000121000001110001002400000014054
:101ABC0000080140000C01400010014000040140EE
:101ACC000B4BDA68BB69DB4309491340CB607B6A7B
:101ADC0001337B623B681A687B6A22FA03F3002BA2
:101AEC007FF496AE00BF00BF2C37BD4680BC70475C
:101AFC000004014080B483B000AF78600B467B805B
:101B0C0013467B707B78002B03D07A887B681A6134
:101B1C0003E07B881A047B681A6100BF0C37BD4652
:101B2C0080BC704780B485B000AF78600B467B807A
:101B3C007B68DB68FB607A88FB6813401A04FB68DF
:101B4C00D9437B880B401A437B681A6100BF14375A
:101B5C00BD4680BC7047000080B586B000AF786091
:101B6C007B68002B01D1012372E27B681B6803F0B8
:101B7C000103002B00F08780924B5B6803F00C0391
:101B8C00042B0CD08F4B5B6803F00C03082B12D189
:101B9C008C4B5B6803F48033B3F5803F0BD1894BDE
:101BAC001B6803F40033002B6CD07B685B68002B44
:101BBC0068D101234CE27B685B68B3F5803F06D1AA
:101BCC00804B1B687F4A43F4803313602EE07B68A4
:101BDC005B68002B0CD17B4B1B687A4A23F4803357
:101BEC001360784B1B68774A23F4802313601DE045
:101BFC007B685B68B3F5A02F0CD1724B1B68714AE4
:101C0C0043F4802313606F4B1B686E4A43F480339C
:101C1C0013600BE06B4B1B686A4A23F48033136030
:101C2C00684B1B68674A23F4802313607B685B68EE
:101C3C00002B13D0FFF71AFC386108E0FFF716FCF5
:101C4C0002463B69D31A642B01D9032300E25D4B96
:101C5C001B6803F40033002BF0D014E0FFF706FCF4
:101C6C00386108E0FFF702FC02463B69D31A642B8B
:101C7C0001D90323ECE1534B1B6803F40033002B15
:101C8C00F0D100E000BF7B681B6803F00203002B5F
:101C9C0063D04C4B5B6803F00C03002B0BD0494B0F
:101CAC005B6803F00C03082B1CD1464B5B6803F4F8
:101CBC008033002B16D1434B1B6803F00203002B1F
:101CCC0005D07B681B69012B01D00123C0E13D4B82
:101CDC001B6823F0F8027B685B69DB00394913430E
:101CEC000B603AE07B681B69002B20D0364B01223D
:101CFC001A60FFF7BBFB386108E0FFF7B7FB024641
:101D0C003B69D31A022B01D90323A1E12D4B1B688C
:101D1C0003F00203002BF0D02A4B1B6823F0F802CF
:101D2C007B685B69DB00274913430B6015E0264B8E
:101D3C0000221A60FFF79AFB386108E0FFF796FB68
:101D4C0002463B69D31A022B01D9032380E11D4BB8
:101D5C001B6803F00203002BF0D17B681B6803F0B7
:101D6C000803002B3AD07B689B69002B19D0174BCA
:101D7C0001221A60FFF77AFB386108E0FFF776FB67
:101D8C0002463B69D31A022B01D9032360E10D4BA8
:101D9C005B6A03F00203002BF0D0012000F0D8FAAC
:101DAC001CE00A4B00221A60FFF760FB38610FE061
:101DBC00FFF75CFB02463B69D31A022B08D90323BD
:101DCC0046E100BF00100240000042428004424243
:101DDC00924B5B6A03F00203002BE9D17B681B6812
:101DEC0003F00403002B00F0A6800023FB758B4B43
:101DFC00DB6903F08053002B0DD1884BDB69874ADC
:101E0C0043F08053D361854BDB6903F08053BB6097
:101E1C00BB680123FB75824B1B6803F48073002B9A
:101E2C0018D17F4B1B687E4A43F480731360FFF715
:101E3C001DFB386108E0FFF719FB02463B69D31A1A
:101E4C00642B01D9032303E1754B1B6803F48073E6
:101E5C00002BF0D07B68DB68012B06D16F4B1B6A23
:101E6C006E4A43F0010313622DE07B68DB68002BA4
:101E7C000CD16A4B1B6A694A23F001031362674B4E
:101E8C001B6A664A23F0040313621CE07B68DB6860
:101E9C00052B0CD1614B1B6A604A43F0040313629F
:101EAC005E4B1B6A5D4A43F0010313620BE05B4B14
:101EBC001B6A5A4A23F001031362584B1B6A574A98
:101ECC0023F0040313627B68DB68002B15D0FFF74B
:101EDC00CDFA38610AE0FFF7C9FA02463B69D31A1A
:101EEC0041F28832934201D90323B1E04B4B1B6A78
:101EFC0003F00203002BEED014E0FFF7B7FA3861C1
:101F0C000AE0FFF7B3FA02463B69D31A41F2883272
:101F1C00934201D903239BE0404B1B6A03F002035D
:101F2C00002BEED1FB7D012B05D13C4BDB693B4AF1
:101F3C0023F08053D3617B68DB69002B00F0878032
:101F4C00364B5B6803F00C03082B61D07B68DB69B4
:101F5C00022B46D1334B00221A60FFF787FA386107
:101F6C0008E0FFF783FA02463B69D31A022B01D92A
:101F7C0003236DE0294B1B6803F00073002BF0D199
:101F8C007B681B6AB3F5803F08D1244B5B6823F454
:101F9C0000327B689B68214913434B601F4B5B6885
:101FAC0023F474127B68196A7B685B6A0B431B49C8
:101FBC0013434B601B4B01221A60FFF757FA386131
:101FCC0008E0FFF753FA02463B69D31A022B01D9FA
:101FDC0003233DE0114B1B6803F00073002BF0D082
:101FEC0035E0104B00221A60FFF740FA386108E028
:101FFC00FFF73CFA02463B69D31A022B01D90323A3
:10200C0026E0064B1B6803F00073002BF0D11EE09A
:10201C007B68DB69012B07D1012319E0001002401A
:10202C0000700040600042420B4B5B68FB60FB6839
:10203C0003F480327B681B6A9A4206D1FB6803F476
:10204C0070127B685B6A9A4201D0012300E0002386
:10205C0018461837BD4680BD0010024080B584B0CC
:10206C0000AF786039607B68002B01D10123D0E090
:10207C006A4B1B6803F007033A689A4210D9674B06
:10208C001B6823F0070265493B6813430B60634BE5
:10209C001B6803F007033A689A4201D00123B8E0A9
:1020AC007B681B6803F00203002B20D07B681B6845
:1020BC0003F00403002B05D0594B5B68584A43F4DA
:1020CC00E06353607B681B6803F00803002B05D0AA
:1020DC00534B5B68524A43F460535360504B5B68FC
:1020EC0023F0F0027B689B684D4913434B607B687F
:1020FC001B6803F00103002B40D07B685B68012B4D
:10210C0007D1474B1B6803F40033002B15D1012377
:10211C007FE07B685B68022B07D1414B1B6803F0A7
:10212C000073002B09D1012373E03D4B1B6803F0B6
:10213C000203002B01D101236BE0394B5B6823F0C8
:10214C0003027B685B68364913434B60FFF78EF9DB
:10215C00F8600AE0FFF78AF90246FB68D31A41F2ED
:10216C008832934201D9032353E02D4B5B6803F073
:10217C000C027B685B689B009A42EBD1274B1B6877
:10218C0003F007033A689A4210D2244B1B6823F0E1
:10219C00070222493B6813430B60204B1B6803F07A
:1021AC0007033A689A4201D0012332E07B681B682E
:1021BC0003F00403002B08D0194B5B6823F4E06296
:1021CC007B68DB68164913434B607B681B6803F024
:1021DC000803002B09D0124B5B6823F460527B6818
:1021EC001B69DB000E4913434B6000F021F80246DB
:1021FC000B4B5B681B0903F00F030A49CB5C22FAFB
:10220C0003F3094A1360094B1B681846FFF7ECF8F7
:10221C00002318461037BD4680BD00BF0020024089
:10222C0000100240644B0008000000200400002055
:10223C0090B48AB000AF294B3C1D0FCB84E80F0043
:10224C0040F201233B800023FB610023BB61002390
:10225C007B6200237B6100233B62214B5B68FB614B
:10226C00FB6903F00C03042B02D0082B03D02BE0EA
:10227C001C4B3B622BE0FB699B0C03F00F032833D8
:10228C003B4413F8243C7B61FB6903F48033002B43
:10229C0012D0134B5B685B0C03F0010328333B44F7
:1022AC0013F8283CBB617B690E4A03FB02F2BB6945
:1022BC00B2FBF3F37B6204E07B690B4A02FB03F392
:1022CC007B627B6A3B6202E0064B3B6200BF3B6A6F
:1022DC0018462837BD4690BC704700BF544B0008C9
:1022EC000010024000127A0000093D0080B400AFDB
:1022FC00024B1B681846BD4680BC7047000000208E
:10230C0080B500AFFFF7F2FF0246054B5B681B0A76
:10231C0003F007030349CB5C22FA03F3184680BD94
:10232C0000100240744B000880B500AFFFF7DEFFD1
:10233C000246054B5B68DB0A03F007030349CB5CE1
:10234C0022FA03F3184680BD00100240744B0008BB
:10235C0080B485B000AF78600A4B1B680A4AA2FBB8
:10236C0003235B0A7A6802FB03F3FB6000BFFB6884
:10237C005A1EFA60002BF9D100BF00BF1437BD46BE
:10238C0080BC704700000020D34D621080B582B035
:10239C0000AF78607B68002B01D1012341E07B68A2
:1023AC0093F83D30DBB2002B06D17B68002283F81A
:1023BC003C207868FEF7E4F97B68022283F83D2024
:1023CC007B681A687B6804331946104600F06AFA79
:1023DC007B68012283F846207B68012283F83E202B
:1023EC007B68012283F83F207B68012283F8402020
:1023FC007B68012283F841207B68012283F842200C
:10240C007B68012283F843207B68012283F84420F7
:10241C007B68012283F845207B68012283F83D20EC
:10242C00002318460837BD4680BD000080B485B037
:10243C0000AF78607B6893F83D30DBB2012B01D0A4
:10244C00012335E07B68022283F83D207B681B6802
:10245C00DA687B681B6842F00102DA607B681B68F3
:10246C00164A934209D07B681B68B3F1804F04D0A5
:10247C007B681B68124A934211D17B681B689B686E
:10248C0003F00703FB60FB68062B10D07B681B680E
:10249C001A687B681B6842F001021A6007E07B68CF
:1024AC001B681A687B681B6842F001021A600023E3
:1024BC0018461437BD4680BC704700BF002C014045
:1024CC000004004080B582B000AF78607B681B6868
:1024DC001B6903F00203022B22D17B681B68DB68AB
:1024EC0003F00203022B1BD17B681B686FF0020206
:1024FC001A617B6801221A777B681B689B6903F061
:10250C000303002B03D0786800F0B1F905E078687C
:10251C0000F0A4F9786800F0B3F97B6800221A7710
:10252C007B681B681B6903F00403042B22D17B68B6
:10253C001B68DB6803F00403042B1BD17B681B684E
:10254C006FF004021A617B6802221A777B681B68A1
:10255C009B6903F44073002B03D0786800F087F973
:10256C0005E0786800F07AF9786800F089F97B6802
:10257C0000221A777B681B681B6903F00803082B81
:10258C0022D17B681B68DB6803F00803082B1BD186
:10259C007B681B686FF008021A617B6804221A774B
:1025AC007B681B68DB6903F00303002B03D078689E
:1025BC0000F05DF905E0786800F050F9786800F0FB
:1025CC005FF97B6800221A777B681B681B6903F034
:1025DC001003102B22D17B681B68DB6803F01003FF
:1025EC00102B1BD17B681B686FF010021A617B6883
:1025FC0008221A777B681B68DB6903F44073002B95
:10260C0003D0786800F033F905E0786800F026F91B
:10261C00786800F035F97B6800221A777B681B68B4
:10262C001B6903F00103012B0ED17B681B68DB686F
:10263C0003F00103012B07D17B681B686FF00102CB
:10264C001A617868FDF7EEFE7B681B681B6903F066
:10265C008003802B0ED17B681B68DB6803F0800342
:10266C00802B07D17B681B686FF080021A61786839
:10267C0000F067FA7B681B681B6903F04003402B72
:10268C000ED17B681B68DB6803F04003402B07D13D
:10269C007B681B686FF040021A61786800F0F9F8EB
:1026AC007B681B681B6903F02003202B0ED17B6811
:1026BC001B68DB6803F02003202B07D17B681B68A9
:1026CC006FF020021A61786800F032FA00BF083708
:1026DC00BD4680BD80B584B000AF786039607B6842
:1026EC0093F83C30012B01D10223B3E07B6801222B
:1026FC0083F83C207B68022283F83D207B681B68B2
:10270C009B68FB60FB6823F07703FB60FB6823F49A
:10271C007F43FB607B681B68FA689A603B681B68A8
:10272C00B3F5005F3ED0B3F5005F00F28780B3F5E0
:10273C00805F00F08580B3F5805F7FD8702B1AD056
:10274C00702B7BD8602B50D0602B77D8502B3CD083
:10275C00502B73D8402B58D0402B6FD8302B64D0D3
:10276C00302B6BD8202B60D0202B67D8002B5CD063
:10277C00102B5AD062E07B6818683B6899683B68FC
:10278C005A683B68DB6800F05CF97B681B689B68E7
:10279C00FB60FB6843F07703FB607B681B68FA689F
:1027AC009A604EE07B6818683B6899683B685A6889
:1027BC003B68DB6800F045F97B681B689A687B68AE
:1027CC001B6842F480429A603BE07B6818683B6867
:1027DC0059683B68DB681A4600F0BCF87B681B68DC
:1027EC005021184600F013F92BE07B6818683B6801
:1027FC0059683B68DB681A4600F0DAF87B681B689E
:10280C006021184600F003F91BE07B6818683B68F0
:10281C0059683B68DB681A4600F09CF87B681B68BB
:10282C004021184600F0F3F80BE07B681A683B680F
:10283C001B681946104600F0EAF802E000BF00E001
:10284C0000BF7B68012283F83D207B68002283F85F
:10285C003C20002318461037BD4680BD80B483B0A1
:10286C0000AF786000BF0C37BD4680BC704780B4A9
:10287C0083B000AF786000BF0C37BD4680BC70479A
:10288C0080B483B000AF786000BF0C37BD4680BC0D
:10289C00704780B483B000AF786000BF0C37BD4682
:1028AC0080BC704780B485B000AF786039607B68BD
:1028BC001B68FB607B68254A934207D07B68B3F1A9
:1028CC00804F03D07B68224A934208D1FB6823F0E7
:1028DC007003FB603B685B68FA681343FB607B68C2
:1028EC001A4A934207D07B68B3F1804F03D07B68C0
:1028FC00174A934208D1FB6823F44073FB603B6892
:10290C00DB68FA681343FB60FB6823F080023B68CA
:10291C005B691343FB607B68FA681A603B689A68D2
:10292C007B68DA623B681A687B689A627B68074A44
:10293C00934203D13B681A697B681A637B68012256
:10294C005A6100BF1437BD4680BC7047002C014053
:10295C000004004080B487B000AFF860B9607A60C2
:10296C00FB681B6A7B61FB681B6A23F00102FB6836
:10297C001A62FB689B693B613B6923F0F0033B6186
:10298C007B681B013A6913433B617B6923F00A03A3
:10299C007B617A69BB6813437B61FB683A699A6116
:1029AC00FB687A691A6200BF1C37BD4680BC704751
:1029BC0080B487B000AFF860B9607A60FB681B6ABE
:1029CC0023F01002FB681A62FB689B697B61FB6851
:1029DC001B6A3B617B6923F470437B617B681B033F
:1029EC007A6913437B613B6923F0A0033B61BB68AD
:1029FC001B013A6913433B61FB687A699A61FB6876
:102A0C003A691A6200BF1C37BD4680BC704780B45F
:102A1C0085B000AF786039607B689B68FB60FB68B1
:102A2C0023F07003FB603A68FB68134343F0070321
:102A3C00FB607B68FA689A6000BF1437BD4680BCA7
:102A4C00704780B487B000AFF860B9607A603B60C3
:102A5C00FB689B687B617B6923F47F437B613B68EC
:102A6C001A027B681A43BB6813437A6913437B6170
:102A7C00FB687A699A6000BF1C37BD4680BC704702
:102A8C0080B485B000AF786039607B6893F83C30D7
:102A9C00012B01D1022341E07B68012283F83C2009
:102AAC007B68022283F83D207B681B685B68FB60B7
:102ABC007B681B689B68BB60FB6823F07003FB6042
:102ACC003B681B68FA681343FB607B681B68FA68F9
:102ADC005A607B681B68144A934209D07B681B6858
:102AEC00B3F1804F04D07B681B68104A93420CD121
:102AFC00BB6823F08003BB603B685B68BA68134318
:102B0C00BB607B681B68BA689A607B68012283F89B
:102B1C003D207B68002283F83C20002318461437A4
:102B2C00BD4680BC704700BF002C01400004004033
:102B3C0080B483B000AF786000BF0C37BD4680BC5A
:102B4C00704780B483B000AF786000BF0C37BD46CF
:102B5C0080BC704780B582B000AF78607B68002B7A
:102B6C0001D101233FE07B6893F83D30DBB2002BB1
:102B7C0006D17B68002283F83C207868FDF724FEA0
:102B8C007B68242283F83D207B681B68DA687B68AD
:102B9C001B6822F40052DA60786800F085FC7B68D0
:102BAC001B681A697B681B6822F490421A617B6867
:102BBC001B685A697B681B6822F02A025A617B6881
:102BCC001B68DA687B681B6842F40052DA607B6829
:102BDC0000221A647B68202283F83D207B68202227
:102BEC0083F83E20002318460837BD4680BD80B5CB
:102BFC008AB002AFF860B9603B601346FB800023DB
:102C0C007B61FB6893F83D30DBB2202B7CD1BB6839
:102C1C00002B02D0FB88002B01D1012375E0FB684F
:102C2C0093F83C30012B01D102236EE0FB680122AA
:102C3C0083F83C20FB6800221A64FB68212283F88D
:102C4C003D20FEF713FC7861FB68FA889A84FB68D8
:102C5C00FA88DA84FB689B68B3F5805F08D1FB685F
:102C6C001B69002B04D10023FB61BB68BB6103E033
:102C7C00BB68FB610023BB61FB68002283F83C202E
:102C8C002AE03B6800937B6900228021F86800F001
:102C9C0038FA0346002B01D0032336E0FB69002BE6
:102CAC000BD1BB691B881A46FB681B68C2F3080270
:102CBC005A60BB690233BB6107E0FB691A78FB6899
:102CCC001B685A60FB690133FB61FB68DB8C9BB2B0
:102CDC00013B9AB2FB68DA84FB68DB8C9BB2002B5D
:102CEC00CFD13B6800937B6900224021F86800F04B
:102CFC0008FA0346002B01D0032306E0FB682022D0
:102D0C0083F83D20002300E0022318462037BD46FF
:102D1C0080BD80B584B000AFF860B9601346FB800D
:102D2C00FB6893F83E30DBB2202B1DD1BB68002B27
:102D3C0002D0FB88002B01D1012316E0FB6893F82D
:102D4C003C30012B01D102230FE0FB68012283F8F8
:102D5C003C20FB6800221A63FB881A46B968F868A5
:102D6C0000F019FA034600E0022318461037BD465E
:102D7C0080BD000080B58AB000AF78607B681B68AE
:102D8C001B687B627B681B68DB683B627B681B682B
:102D9C005B69FB610023BB6100237B617B6A03F0F1
:102DAC000F03BB61BB69002B0DD17B6A03F02003C1
:102DBC00002B08D03B6A03F02003002B03D078686B
:102DCC0000F0C9FA7BE1BB69002B00F0B180FB6914
:102DDC0003F00103002B05D13B6A03F49073002B25
:102DEC0000F0A6807B6A03F00103002B0AD03B6A3B
:102DFC0003F48073002B05D07B681B6C43F001023D
:102E0C007B681A647B6A03F00403002B0AD0FB690D
:102E1C0003F00103002B05D07B681B6C43F002020E
:102E2C007B681A647B6A03F00203002B0AD0FB69EF
:102E3C0003F00103002B05D07B681B6C43F00402EC
:102E4C007B681A647B6A03F00803002B0FD03B6A83
:102E5C0003F02003002B04D1FB6903F00103002BCA
:102E6C0005D07B681B6C43F008027B681A647B6896
:102E7C001B6C002B00F01E817B6A03F02003002BDF
:102E8C0007D03B6A03F02003002B02D0786800F0D7
:102E9C0062FA7B681B685B6903F04003002B14BF6C
:102EAC0001230023DBB27B617B681B6C03F00803FE
:102EBC00002B02D17B69002B31D0786800F0A4F98B
:102ECC007B681B685B6903F04003002B23D07B6895
:102EDC001B685A697B681B6822F040025A617B6848
:102EEC009B6B002B13D07B689B6B764A5A637B6879
:102EFC009B6B1846FEF70CFC0346002B16D07B6828
:102F0C009B6B5B6B7A68926B104698470EE0786807
:102F1C0000F0E3F80AE0786800F0DFF806E0786883
:102F2C0000F0DBF87B6800221A64C3E000BFC1E04C
:102F3C007B681B6B012B40F0A1807B6A03F01003B4
:102F4C00002B00F09B803B6A03F01003002B00F079
:102F5C0095800023FB607B681B681B68FB607B68AB
:102F6C001B685B68FB60FB687B681B685B6903F034
:102F7C004003002B4ED07B689B6B1B685B683B82CD
:102F8C003B8A002B00F098807B689B8D3A8A9A4292
:102F9C0080F092807B683A8ADA857B689B6B9B69B0
:102FAC00202B2BD07B681B68DA687B681B6822F4AB
:102FBC008072DA607B681B685A697B681B6822F038
:102FCC0001025A617B681B685A697B681B6822F096
:102FDC0040025A617B68202283F83E207B680022E5
:102FEC001A637B681B68DA687B681B6822F0100226
:102FFC00DA607B689B6B1846FEF74FFB7B689A8DFB
:10300C007B68DB8D9BB2D31A9BB21946786800F0B3
:10301C006DF851E07B689A8D7B68DB8D9BB2D31A7F
:10302C007B827B68DB8D9BB2002B47D07B8A002B8D
:10303C0044D07B681B68DA687B681B6822F490724A
:10304C00DA607B681B685A697B681B6822F0010296
:10305C005A617B68202283F83E207B6800221A6329
:10306C007B681B68DA687B681B6822F01002DA60E8
:10307C007B8A1946786800F039F81FE07B6A03F008
:10308C008003002B08D03B6A03F08003002B03D095
:10309C00786800F0F9F812E07B6A03F04003002B2B
:1030AC000DD03B6A03F04003002B08D0786800F089
:1030BC003AF904E000BF02E000BF00E000BF28378F
:1030CC00BD4680BD6D32000880B483B000AF78601F
:1030DC0000BF0C37BD4680BC704780B483B000AFD6
:1030EC00786000BF0C37BD4680BC704780B483B09D
:1030FC0000AF78600B467B8000BF0C37BD4680BCB0
:10310C00704780B584B000AFF860B9603B6013467F
:10311C00FB712CE0BB69B3F1FF3F28D0BB69002BDE
:10312C0007D0FEF7A3F902463B68D31ABA699A4254
:10313C001DD2FB681B68DA68FB681B6822F4D0722E
:10314C00DA60FB681B685A69FB681B6822F0010295
:10315C005A61FB68202283F83D20FB68202283F80B
:10316C003E20FB68002283F83C2003230FE0FB6821
:10317C001B681A68BB681340BA689A420CBF0123DB
:10318C000023DBB21A46FB799A42C3D000231846BF
:10319C001037BD4680BD80B485B000AFF860B96013
:1031AC001346FB80FB68BA689A62FB68FA889A85BA
:1031BC00FB68FA88DA85FB6800221A64FB68222215
:1031CC0083F83E20FB68002283F83C20FB681B68D8
:1031DC00DA68FB681B6842F48072DA60FB681B6873
:1031EC005A69FB681B6842F001025A61FB681B6854
:1031FC00DA68FB681B6842F02002DA60002318468C
:10320C001437BD4680BC704780B483B000AF786083
:10321C007B681B68DA687B681B6822F49072DA6042
:10322C007B681B685A697B681B6822F001025A6133
:10323C007B681B6B012B07D17B681B68DA687B688A
:10324C001B6822F01002DA607B68202283F83E2093
:10325C007B6800221A6300BF0C37BD4680BC7047E8
:10326C0080B584B000AF78607B685B6AFB60FB68FC
:10327C000022DA85FB680022DA84F868FFF72DFF5C
:10328C0000BF1037BD4680BD80B485B000AF7860FC
:10329C007B6893F83D30DBB2212B3ED17B689B6879
:1032AC00B3F5805F14D17B681B69002B10D17B6850
:1032BC001B6AFB60FB681B881A467B681B68C2F3A1
:1032CC0008025A607B681B6A9A1C7B681A6208E0C9
:1032DC007B681B6A591C7A6811621A787B681B68B8
:1032EC005A607B68DB8C9BB2013B9BB27A681946B7
:1032FC00D184002B0FD17B681B68DA687B681B6854
:10330C0022F08002DA607B681B68DA687B681B68D5
:10331C0042F04002DA60002300E002231846143722
:10332C00BD4680BC704780B582B000AF78607B68CA
:10333C001B68DA687B681B6822F04002DA607B68E5
:10334C00202283F83D207868FFF7BEFE0023184644
:10335C000837BD4680BD80B586B000AF78607B680D
:10336C0093F83E30DBB2222B40F099807B689B684F
:10337C00B3F5805F17D17B681B69002B13D1002339
:10338C007B617B689B6A3B617B681B685B689BB25B
:10339C00C3F308039AB23B691A807B689B6A9A1C38
:1033AC007B689A6226E07B689B6A7B6100233B61A9
:1033BC007B689B68B3F5805F07D07B689B68002BAC
:1033CC000AD17B681B69002B06D17B681B685B6884
:1033DC00DAB27B691A7008E07B681B685B68DBB249
:1033EC0003F07F03DAB27B691A707B689B6A5A1C04
:1033FC007B689A627B68DB8D9BB2013B9BB27A68DF
:10340C001946D185002B48D17B681B68DA687B682C
:10341C001B6822F02002DA607B681B68DA687B6824
:10342C001B6822F48072DA607B681B685A697B68BF
:10343C001B6822F001025A617B68202283F83E202F
:10344C007B681B6B012B23D17B6800221A637B6882
:10345C001B68DA687B681B6822F01002DA607B68F4
:10346C001B681B6803F01003102B0AD10023FB60B0
:10347C007B681B681B68FB607B681B685B68FB6078
:10348C00FB687B689B8D19467868FFF72FFE02E07E
:10349C007868FCF755FE002302E0002300E00223CD
:1034AC0018461837BD4680BD80B584B000AF786033
:1034BC007B681B681B6923F440517B68DA687B6866
:1034CC001B680A431A617B689A687B681B691A43FC
:1034DC007B685B691343BB607B681B68DB6823F408
:1034EC00B05323F00C037A681268B9680B43D360AD
:1034FC007B681B685B6923F440717B689A697B6805
:10350C001B680A435A617B681B682C4A934203D19F
:10351C00FEF70AFFF86002E0FEF7F2FEF860FA68C8
:10352C0013469B0013449A001A447B685B689B000B
:10353C00B2FBF3F3224AA2FB03235B091901FA68DD
:10354C0013469B0013449A001A447B685B689B00EB
:10355C00B2FBF3F21A4BA3FB02035B09642000FBE2
:10356C0003F3D31A1B013233154AA2FB03235B0965
:10357C0003F0F0031944FA6813469B0013449A00B5
:10358C001A447B685B689B00B2FBF3F20C4BA3FB09
:10359C0002035B09642000FB03F3D31A1B013233D3
:1035AC00074AA2FB03235B0903F00F027B681B682D
:1035BC000A449A6000BF1037BD4680BD00380140F8
:1035CC001F85EB51014B1868704700BF0C000020A1
:1035DC0070B500260C4D0D4C641BA410A64209D1ED
:1035EC0001F03CFA00260A4D0A4C641BA410A642BA
:1035FC0005D170BD55F8043B98470136EEE755F8F8
:10360C00043B98470136F2E7C44C0008C44C000850
:10361C00C44C0008C84C000803460244934200D135
:10362C00704703F8011BF9E7164B10B51C68A36B28
:10363C00B3B9182000F086F80246A06320B94E21D9
:10364C00114B124800F04EF81149124BC0E900130F
:10365C00114B002183600B2383810120C2E90401FB
:10366C00A46B0E4A2069636942430D4901FB032296
:10367C00A0FB0101431C42EB0100C4E9043020F023
:10368C00004010BD0C000020804B0008974B000838
:10369C000E33CDAB34126DE6ECDE05002DF4515833
:1036AC002D7F954C0EB46FF0004100B59CB01DAB56
:1036BC0002900690079104910848094953F8042B8D
:1036CC000591006802A9019300F07CF90022029B8D
:1036DC001A701CB05DF804EB03B070470C000020AE
:1036EC000802FFFF1FB514461A46094B05461B6816
:1036FC00D8684CB1074BCDE9013400912B460649F3
:10370C0000F00EF800F01CFE044B1C46F3E700BF63
:10371C000C000020F24B0008FF4B00082D4C000859
:10372C000EB403B5014603AB054853F8042B0068EF
:10373C00019300F06FFA02B05DF804EB03B0704730
:10374C000C000020024B0146186800F06BB800BF5B
:10375C000C00002038B50546002940D051F8043C37
:10376C000C1F002BB8BFE41801F044F81C4A136876
:10377C0033B9636014602846BDE8384001F040B8A6
:10378C00A34208D9206821188B4201BF19685B68D5
:10379C0009182160EDE71A465B680BB1A342FAD910
:1037AC0011685018A0420BD1206801445018834274
:1037BC001160E0D118685B68014411605360DAE76E
:1037CC0002D90C232B60D6E7206821188B4201BF4D
:1037DC0019685B680918216063605460CBE738BDD9
:1037EC004C04002070B50E4E0C463168054611B9DC
:1037FC0000F0D6FC30602146284600F0D1FC431C7A
:10380C000AD0C41C24F00304A04207D0211A284675
:10381C0000F0C6FC013001D14FF0FF34204670BDE2
:10382C00500400202DE9F041CD1C25F0030508358E
:10383C000C2D38BF0C25002D074601DBA94205D9FC
:10384C000C2300263B603046BDE8F0812E4E00F084
:10385C00D1FF33681C4634BB29463846FFF7C2FFFC
:10386C00431C04464DD134682646002E40D12368B3
:10387C003146384604EB030800F092FC80453AD1FF
:10388C00216803356D1A25F0030508350C2D38BF5A
:10389C000C2538462946FFF7A5FF01302BD02368AD
:1038AC002B4423600EE02268521B1ED40B2A16D91F
:1038BC006119A342256018BF5960636808BF316065
:1038CC0062514B60384604F10B0600F099FF26F06C
:1038DC000706231DF21AB6D09B1BA350B3E76268F0
:1038EC00A3420CBF32605A60ECE723466468B2E72F
:1038FC0034467668B9E70C2338463B6000F080FF0D
:10390C00A1E72560DEE700BF4C0400202DE9F0475D
:10391C008E6882469E420C4690461F4638D88A894D
:10392C0012F4906F32D0256809690133A5EB0109B7
:10393C0065694B4405EB450505EBD5756D109D424E
:10394C0038BF1D46530531D52946FFF76BFF064698
:10395C0050B90C234FF0FF30CAF80030A38943F064
:10396C004003A381BDE8F0874A46216900F01AFFA5
:10397C00A38923F4906343F08003A38126614E4412
:10398C0026603E466561A5EB0905A560BE4200D9DF
:10399C003E4632464146206800F012FFA3680020E4
:1039AC009B1BA360236833442360DBE72A4600F0AB
:1039BC002DFF06460028E1D150462169FFF7CAFECB
:1039CC00C7E700002DE9F04F98468B8907461B0688
:1039DC000D4614469DB00ED50B6963B94021FFF717
:1039EC0021FF2860286120B90C233B604FF0FF3089
:1039FC00D1E040236B610023099320238DF82930FB
:103A0C0030234FF00109CDF80C80DFF8A4818DF83C
:103A1C002A3023469A4613F8012B0AB1252AF9D1EC
:103A2C00BAEB040B0BD05B46224629463846FFF70F
:103A3C006DFF013000F0AA80099A5A4409929AF855
:103A4C000030002B00F0A28000234FF0FF32CDE9B4
:103A5C0005230AF1010A049307938DF853301A9346
:103A6C005446052214F8011B514800F08DFE049AAF
:103A7C00D8B9D00644BF20238DF85330110744BF6A
:103A8C002B238DF853309AF800302A2B15D054463E
:103A9C0000204FF00A0C079A214611F8013B303BED
:103AAC00092B4ED9B0B1079214E0A0EB080309FA28
:103ABC0003F31343A2460493D2E7039B191D1B681F
:103ACC000391002BBBBF5B4242F0020207930793AA
:103ADC00B8BF049223782E2B0CD163782A2B35D1C6
:103AEC00039B02341A1D1B680392002BB8BF4FF0C6
:103AFC00FF330593DFF8BCA003225046217800F079
:103B0C0043FE40B14023A0EB0A0003FA00F0049BF3
:103B1C0001340343049314F8011B062226488DF844
:103B2C00281000F031FE002838D0244B1BBB039B1F
:103B3C00073323F0070308330393099B334409939A
:103B4C0067E70C4601200CFB0232A5E700234FF07F
:103B5C000A0C194601340593204610F8012B303A13
:103B6C00092A03D9002BC5D00591C3E704460123CC
:103B7C000CFB0121F0E703AB00932A463846104BAF
:103B8C0004A9AFF30080421C0646D6D1AB895B0674
:103B9C003FF52CAF09981DB0BDE8F08F03AB009337
:103BAC002A463846064B04A900F0D4F9EBE700BFCF
:103BBC002E4C0008344C0008384C00080000000063
:103BCC0019390008936810B4013B002B936007DA95
:103BDC009469A34201DB0A2902D110BC00F0F0BAAF
:103BEC001368581C10601970084610BC7047F8B563
:103BFC0006460F461446D518AC4201D1002007E00A
:103C0C003A46304614F8011BFFF7DCFF431CF3D196
:103C1C00F8BD00002DE9F04F0D46144698460646B7
:103C2C009DB018B183690BB900F0A8FC894B9D427B
:103C3C001BD175686B6ED90705D4AB899A0502D474
:103C4C00A86D00F039FDAB891B0701D52B69EBB9C9
:103C5C002946304600F006FBC0B16B6EDC070ED572
:103C6C004FF0FF301DB0BDE8F08F7B4B9D4201D172
:103C7C00B568DFE7794B9D4208BFF568DAE7AB8999
:103C8C009805EDD4A86D00F018FDE9E70023099321
:103C9C0020238DF8293030234FF00109CDF80C800A
:103CAC00DFF8BC818DF82A3023469A4613F8012B95
:103CBC000AB1252AF9D1BAEB040B0BD05B4622468C
:103CCC0029463046FFF793FF013000F0AA80099A8D
:103CDC005A4409929AF80030002B00F0A28000237D
:103CEC004FF0FF32CDE905230AF1010A0493079343
:103CFC008DF853301A935446052214F8011B58487A
:103D0C0000F042FD049AD8B9D10644BF20238DF8A7
:103D1C005330130744BF2B238DF853309AF80030DF
:103D2C002A2B15D0544600204FF00A0C079A214636
:103D3C0011F8013B303B092B4ED9B0B1079214E07E
:103D4C00A0EB080309FA03F31343A2460493D2E74A
:103D5C00039B191D1B680391002BBBBF5B4242F0F8
:103D6C00020207930793B8BF049223782E2B0CD131
:103D7C0063782A2B35D1039B02341A1D1B680392DE
:103D8C00002BB8BF4FF0FF330593DFF8D8A0032208
:103D9C005046217800F0F8FC40B14023A0EB0A001B
:103DAC0003FA00F0049B01340343049314F8011B41
:103DBC0006222D488DF8281000F0E6FC00283FD094
:103DCC002A4B1BBB039B073323F0070308330393D6
:103DDC00099B3B44099367E70C4601200CFB02321C
:103DEC00A5E700234FF00A0C194601340593204631
:103DFC0010F8012B303A092A03D9002BC5D00591B4
:103E0C00C3E7044601230CFB0121F0E703AB00934D
:103E1C002A463046164B04A9AFF300800746781C9F
:103E2C00D6D16B6ED90705D4AB899A0502D4A86D8F
:103E3C0000F043FCAB895B063FF512AF099811E724
:103E4C0003AB00932A463046094B04A900F082F8D4
:103E5C00E4E700BF844C0008A44C0008644C000844
:103E6C002E4C0008344C0008384C000800000000B0
:103E7C00FB3B00082DE9F047164699468A680B690A
:103E8C0007469342B8BF1346336091F843200C4663
:103E9C00DDF820800AB1013333602368990642BFF4
:103EAC00336802333360256815F0060506D104F13A
:103EBC00190AE36832689B1AAB4228DC94F8432059
:103ECC00131E226818BF012392062DD4494638468A
:103EDC0004F14302C047013020D02368E56803F0A9
:103EEC000603042B18BF002532684FF00006A368A8
:103EFC0008BFAD1A226908BF25EAE5759342C4BF15
:103F0C009B1AED181A34B5421AD1002008E001238F
:103F1C00524649463846C047013003D14FF0FF3076
:103F2C00BDE8F0870135C4E73020E11881F8430083
:103F3C005A1C94F845102244023382F84310C5E70A
:103F4C000123224649463846C0470130E6D00136A7
:103F5C00D9E700002DE9FF470F7E9146782F804668
:103F6C000C469A460C9D01F1430207D8622F0AD8E1
:103F7C00002F00F0D980582F00F0A48004F14205E6
:103F8C0084F842703AE0A7F16303152BF6D801A12F
:103F9C0051F823F0F93F00080D400008893F000854
:103FAC00893F0008893F0008893F00080D40000840
:103FBC00893F0008893F0008893F0008893F0008B5
:103FCC001B4100083D400008FD400008893F0008E7
:103FDC00893F00083D410008893F00083D4000082A
:103FEC00893F0008893F0008054100082B681A1D0D
:103FFC001B682A6004F1420584F842300123A4E0D6
:10400C0020682968060601F104030AD50E682B60A6
:10401C00002E03DA2D23764284F843300A235E48BF
:10402C0019E00E6810F0400F2B6018BF36B2EFE7A6
:10403C002B682068191D2960010601D51E6802E055
:10404C004606FBD51E886F2F0CBF08230A23524847
:10405C00002184F843106568002DA8BF2168A56075
:10406C00A4BF21F0040121600EB9002D4DD01546DE
:10407C00B6FBF3F103FB1167C75D05F8017D37460D
:10408C00BB420E46F4D9082B0BD12368DE0708D5AA
:10409C00236961689942DEBF302305F8013C05F1C4
:1040AC00FF35521B22614B4621464046CDF800A0FD
:1040BC0003AAFFF7DFFE01304CD14FF0FF3004B004
:1040CC00BDE8F087344881F845702968236851F8B9
:1040DC00046B29601D0614D5DF0744BF43F0200391
:1040EC0023601EB9236823F0200323601023AFE75D
:1040FC00236843F0200323607823284884F8453054
:10410C00E3E7590648BFB6B2E6E71546BBE72B68AE
:10411C002668181D6169286035061B6801D5196071
:10412C0002E07006FBD51980002315462361BAE71F
:10413C002B6800211A1D2A601D686268284600F051
:10414C0023FB08B1401B606063682361002384F883
:10415C004330A8E72A46494640462369D0470130F8
:10416C00ABD023689B0713D4E068039B9842B8BF7D
:10417C001846A4E70123324649464046D047013051
:10418C009BD00135E36803995B1AAB42F2DCEBE799
:10419C00002504F11906F5E73F4C0008504C0008C7
:1041AC0038B50023054D044608462B60FCF724FC6B
:1041BC00431C02D12B6803B1236038BD5804002086
:1041CC00F8B50E461446054618B183690BB900F0D4
:1041DC00D5F9214B9C422BD16C68A369A360A389B0
:1041EC001A072FD523696BB323692068F6B2C01A5E
:1041FC0063693746834204DC2146284600F02AF9DD
:10420C0030BBA3680130013BA36023685A1C2260B9
:10421C001E706369834204D0A389DB0706D50A2E7E
:10422C0004D12146284600F015F988B93846F8BD66
:10423C000A4B9C4201D1AC68CFE7094B9C4208BFAA
:10424C00EC68CAE72146284600F00CF80028CBD0D1
:10425C004FF0FF37EAE700BF844C0008A44C00087D
:10426C00644C0008324B70B51D6806460C4625B1EF
:10427C00AB6913B9284600F081F92E4B9C420FD143
:10428C006C68A389B4F90C2019072CD4DD0611D461
:10429C000923336042F040034FF0FF30A3813EE02E
:1042AC00254B9C4201D1AC68EBE7244B9C4208BFE8
:1042BC00EC68E6E7580712D5616B41B104F1440391
:1042CC00994202D03046FFF745FA00236363A38975
:1042DC0023F02403A3810023636023692360A38953
:1042EC0043F00803A38123694BB9A38903F420731A
:1042FC00B3F5007F03D02146304600F005FAA089C3
:10430C00B4F90C2010F001030AD00023A3606369F8
:10431C005B42A361236943B910F08000BAD170BD30
:10432C00810758BF6369A360F4E70020F7E700BF7B
:10433C000C000020844C0008A44C0008644C0008BD
:10434C00062008B500F0BAFA0120FCF7E2FA0000EA
:10435C008A89F8B5054610070C4657D44B68002BD4
:10436C0004DC0B6C002B01DC0020F8BDE66A002E8F
:10437C00FAD0002312F480522F682B6032D0606D7B
:10438C00A3895A0705D56368C01A636B0BB1236CFC
:10439C00C01A00230246E66A2846216AB047431C2D
:1043AC00A38906D129681D292CD8294ACA40D607C9
:1043BC0028D5002262602269D904226004D5421CEF
:1043CC0001D12B6803B96065616B2F600029CBD0DC
:1043DC0004F14403994202D02846FFF7BBF90020B0
:1043EC006063C2E7216A01232846B047411CC7D14C
:1043FC002B68002BC4D01D2B01D0162B01D12F60A4
:10440C00B2E7A38943F04003A381AEE70F69002F05
:10441C00AAD0930718BF00230E6808BF4B69F61B80
:10442C000F608B60002E9FDD33463A462846216A8A
:10443C00D4F828C0E047002806DCA3894FF0FF30F1
:10444C0043F04003A38190E70744361AEAE700BF24
:10445C000100402038B50B6905460C4613B9002500
:10446C00284638BD18B183690BB900F087F8144B96
:10447C009C421BD16C68B4F90C30002BEFD0626EEF
:10448C00D00704D4990502D4A06D00F015F9284684
:10449C002146FFF75DFF636E0546DA07E0D4A3897A
:1044AC009B05DDD4A06D00F008F9D9E7054B9C42C3
:1044BC0001D1AC68DFE7044B9C4208BFEC68DAE73B
:1044CC00844C0008A44C0008644C0008002310B570
:1044DC000446C0E90033C0E904338360818143663C
:1044EC00C2818361194608225C30FFF795F8054BB1
:1044FC0024626362044BA362044BE362044B2363A8
:10450C0010BD00BF01490008234900085B490008A1
:10451C007F490008014900F0AFB800BF61440008B2
:10452C00682270B54D1E55430E4605F17401FFF718
:10453C0079F9044640B10021C0E900160C30A060A6
:10454C0005F16802FFF768F8204670BD014800F0DD
:10455C00B3B800BF55040020014800F0AEB800BF4E
:10456C0055040020014800F0A7B800BF56040020F5
:10457C00014800F0A2B800BF5604002010B5044654
:10458C00FFF7F0FFA3691BB1BDE81040FFF7F0BFC8
:10459C00C4E912332365134B134A1B68A262A3426E
:1045AC0008BF0123204608BFA36100F01FF860601C
:1045BC00204600F01BF8A060204600F017F80022FF
:1045CC000421E0606068FFF781FF01220921A068E7
:1045DC00FFF77CFF02221221E068FFF777FF01232F
:1045EC00A361D1E77C4B000821450008F8B50746CC
:1045FC00FFF7ACFF1E4B1E68B36913B93046FFF7CB
:10460C00BDFF4836D6E90134013B03D533680BB303
:10461C003668F7E7B4F90C50D5B9164B04F15800CD
:10462C00E360656600F047F8FFF796FF082229461D
:10463C00C4E90155C4E904552560A56104F15C0089
:10464C00FEF7EAFFC4E90D55C4E912552046F8BD42
:10465C006834D9E704213846FFF762FF044630601E
:10466C000028D5D1FFF778FF0C233B60EEE700BFA5
:10467C007C4B00080100FFFF2DE9F84306468846F5
:10468C00002700F14804D4E90195B9F1010905D5D9
:10469C002468002CF7D13846BDE8F883AB89012B90
:1046AC0007D9B5F90E30013303D029463046C0473F
:1046BC0007436835E9E770477047704770B50E4699
:1046CC00B1F90E10144600291D4696B008DA0022E6
:1046DC00B6F90C302A601A0610D44FF480630EE041
:1046EC006A4600F06DF90028F1DB019A02F4704281
:1046FC00A2F500535A425A412A60EEE740230020AB
:10470C00236016B070BD00008B8973B59D070646FB
:10471C000C4607D504F14703236023610123636131
:10472C0002B070BD6A4601ABFFF7C8FF00990546A1
:10473C003046FFF777F848B9B4F90C309A05EFD446
:10474C0023F0030343F00203A381E3E70D4BB362B1
:10475C00A389206043F08003A381009B20616361E7
:10476C00019B5BB13046B4F90E1000F03BF928B157
:10477C00A38923F0030343F00103A381A08905431C
:10478C00A581CDE721450008034610B5C9B2024406
:10479C009342184601D1002003E0047801338C4287
:1047AC00F6D110BD0A44914200F1FF3300D170479D
:1047BC0010B511F8014B914203F8014FF9D110BD1E
:1047CC00884210B501EB020402D98442234607D873
:1047DC00431EA14208D011F8012B03F8012FF8E772
:1047EC00014602448A4200D110BD13F8014D02F873
:1047FC00014DF7E70148FFF75FBF00BF54040020ED
:10480C000148FFF75ABF00BF540400202DE9F041C6
:10481C00804614460E4621B91146BDE8F041FFF71B
:10482C0001B82AB9FEF796FF25462846BDE8F08167
:10483C0000F0FAF88442074602D8B4EB500F12D8B5
:10484C0021464046FEF7EEFF05460028EDD0BC425F
:10485C002246314628BF3A46FFF7A4FF3146404670
:10486C00FEF778FFE1E73546DFE71F2938B5044648
:10487C000D4604D9162303604FF0FF3038BD426C4F
:10488C0012B152F821304BB9204600F031F82A46CB
:10489C0001462046BDE8384000F018B8012B0AD07C
:1048AC00591C03D1162303600120E7E70024284696
:1048BC0042F8254098470020E0E70000024B0146F3
:1048CC001868FFF7D2BF00BF0C00002038B50023DA
:1048DC00064D0446084611462B60FCF70AF8431CAB
:1048EC0002D12B6803B1236038BD00BF58040020EF
:1048FC00FBF7F8BF10B50C46B1F90E1000F09CF8A0
:10490C000028ABBF636DA3891B1823F48053ACBF85
:10491C006365A38110BD2DE9F0411F468B890546C7
:10492C00DB050C46164605D502230022B1F90E1004
:10493C0000F068F8A389324623F48053A3812846FB
:10494C003B46B4F90E10BDE8F04100F017B810B5B5
:10495C000C46B1F90E1000F055F8431CA38915BF95
:10496C00606523F4805343F48053A38118BFA38163
:10497C0010BDB1F90E1000F013B8000038B50446A4
:10498C00084611460022054D2A601A46FBF7E8FF3F
:10499C00431C02D12B6803B1236038BD580400209E
:1049AC0038B50023054D044608462B60FBF7F4FF91
:1049BC00431C02D12B6803B1236038BD580400207E
:1049CC0038B50023064D0446084611462B60FBF70C
:1049DC00EEFF431C02D12B6803B1236038BD00BF2E
:1049EC005804002038B50023054D044608462B60BA
:1049FC00FBF7ECFF431C02D12B6803B1236038BDDD
:104A0C005804002038B50446084611460022054DCE
:104A1C002A601A46FBF7E4FF431C02D12B6803B152
:104A2C00236038BD5804002051F8043C181F002B9B
:104A3C00BCBF0B58C018704738B504460846114621
:104A4C000022054D2A601A46FBF76DFF431C02D16C
:104A5C002B6803B1236038BD58040020F8B500BFA3
:104A6C00F8BC08BC9E467047F8B500BFF8BC08BC43
:044A7C009E4670479B
:104A80002564000054696D65203A20002C20546193
:104A9000736B20646973706C617937534547207379
:104AA00063686564756C65640D0A00002C205461B0
:104AB000736B20746F67676C655F79656C6C6F777B
:104AC000207363686564756C65640D0A00000000FE
:104AD0002C205461736B20746F67676C655F72651F
:104AE00064207363686564756C65640D0A0000007A
:104AF0002C205461736B20746F67676C655F6772FD
:104B000065656E207363686564756C65640D0A0085
:104B10002C205461736B20746F67676C655F6F72D4
:104B2000616E6765207363686564756C65640D0A02
:104B3000000000002C205461736B20746F67676C59
:104B4000655F70696E6B207363686564756C65641E
:104B50000D0A000002030405060708090A0B0C0DE4
:104B60000E0F1010000000000000000001020304FE
:104B700006070809000000000102030410000020DD
:104B80005245454E54206D616C6C6F6320737563A4
:104B9000636565646564002F6275696C642F676E78
:104BA000752D746F6F6C732D666F722D73746D330A
:104BB000325F31302E332D323032312E31302E32C1
:104BC000303231313130352D313130302F73726325
:104BD0002F6E65776C69622F6E65776C69622F6CDA
:104BE0006962632F7374646C69622F72616E642EE4
:104BF00063002C2066756E6374696F6E3A200061E5
:104C00007373657274696F6E20222573222066614A
:104C1000696C65643A2066696C6520222573222CD4
:104C2000206C696E65202564257325730A00232D89
:104C3000302B2000686C4C006566674546470030A5
:104C400031323334353637383941424344454600F2
:104C500030313233343536373839616263646566F2
:104C60000000000000000000000000000000000044
:104C70000000000000000000000000000000000034
:104C80000000000000000000000000000000000024
:104C90000000000000000000000000000000000014
:104CA0000000000000000000000000000000000004
:104CB00000000000000000000000000000000000F4
:044CC00000000000F0
:044CC40031010008B2
:044CC8000D010008D2
:104CCC000024F4001000000001000000100000207F
:104CDC0000000000844C0008A44C0008644C000840
:104CEC0000000000000000000000000000000000B8
:104CFC0000000000000000000000000000000000A8
:104D0C000000000000000000000000000000000097
:104D1C000000000000000000000000000000000087
:104D2C000000000000000000000000000000000077
:040000050800137D5F
:00000001FF
